:100000000C9438000C9460000C9460000C94600018
:100010000C9460000C9460000C9460000C946000E0
:100020000C9460000C9460000C9460000C946000D0
:100030000C9460000C9460000C9465020C946000B9
:100040000C9460000C9460000C9460000C946000B0
:100050000C9460000C9460000C9460000C946000A0
:100060000C9460000C946000BA00F702BE00FB0222
:1000700011241FBECFEFD8E0DEBFCDBF11E0A0E05E
:10008000B1E0E8EEF8E002C005900D92A633B107AA
:10009000D9F722E0A6E3B1E001C01D92A936B2076C
:1000A000E1F710E0C6E3D0E004C02197FE010E9412
:1000B0004003C433D107C9F70E9462000C9467045F
:1000C0000C940000CF93DF931F92CDB7DEB766E0AC
:1000D00071E084E692E00E94880262E370E0CE0163
:1000E00001960E943E02CE0101960E945C0286E3C8
:1000F00091E00E94580186E391E00E94F50086E3BA
:1001000091E00E94080206E311E0F80184819581E4
:10011000181619061CF463E171E002C065E171E094
:1001200084E692E00E9488020C5F1F4FF2E00633E3
:100130001F0759F761E171E084E692E00E948802AE
:1001400086E391E00E94BD018C0167E171E084E6E5
:1001500092E00E948802A801110F660B770B84E6DB
:1001600092E00E948A0261E171E084E692E00E94DE
:100170008802B9CF86E391E00C94A20186E391E076
:100180000C94BB011092C50080E18093C400E2ECA6
:10019000F0E0808186608083E1ECF0E0808188611E
:1001A0008083089508956093C6008091C00085FD06
:1001B00002C00000FACF0895089580E890E0089505
:1001C0006E5F7F4F660F771F860F971F08950C9401
:1001D000740222E231E0FC01318320833898399A9D
:1001E0003A9A4298419808950895CF92DF92EF92FB
:1001F000FF920F931F93CF93DF93EC0124968C0112
:100200000C5F1E4FFE0160E070E0CB01C190D19009
:100210000D2C000CEE08FF086C0D7D1D8E1D9F1D22
:100220000E171F0799F720E830E040E050E00E94E9
:10023000210388819981821B930B899399930C17D1
:100240001D07B9F7DF91CF911F910F91FF90EF90AC
:10025000DF90CF900895ECE7F0E080E4808383E8BE
:1002600080937A0080816770682B60830895809105
:100270007A00806480937A0080917A0086FF02C0C1
:100280000000FACF809178009091790008950000E5
:10029000000000000000000000000000000000005E
:1002A00000000000000000000000000000000895B1
:1002B000EF92FF920F931F93CF93DF93EC0160E0D7
:1002C0000E942B01CE010E9447014198429A419A17
:1002D0004298CE010E9447018E010C5F1F4F7E01A4
:1002E0008CEFE81A8EEFF80ACE010E94370195953F
:1002F000879595958795F801819391938F01419802
:10030000CE010E944701419A0E151F0569F74198D9
:10031000CE010E944701419ACE01DF91CF911F91FA
:100320000F91FF90EF900C944701089580E190E0C9
:1003300008956E5F7F4F660F771F860F971F089592
:100340000C947402CF93DF93EC010E94E900FE014C
:10035000E75FFE4F8EE291E0918380833496C35D28
:10036000DE4F8FEF9FEF81939193EC17FD07D9F745
:10037000DF91CF9108950C94F400895F9E4FFC01AA
:10038000808191810895CF92DF92EF92FF920F9337
:100390001F93CF93DF93DB01AC01435F5E4FFB0103
:1003A000EE0FFF1F20E030E060E070E0CB018F0136
:1003B00009501140ED01C20FD31FC038D105C0F460
:1003C000EA01C00FD11F0990D881C02DFA01E08049
:1003D000F180CE9D6001CF9DD00CDE9DD00C11240C
:1003E0000D2C000CEE08FF086C0D7D1D8E1D9F1D51
:1003F0002F5F3F4F4E5F5F4F20313105D9F6DF91C0
:10040000CF911F910F91FF90EF90DF90CF900895C3
:10041000AF92BF92CF92DF92EF92FF920F931F9312
:10042000CF93DF938C01C0E0D0E0C12C8FE1D82EB8
:100430008AE0E82E8AEFF82E580189EFA81A8EEF8D
:10044000B80ABE01C8010E94C301C616D706E80655
:10045000F9062CF4F501D183C0836B017C01219650
:10046000C038D10571F7DF91CF911F910F91FF90A7
:10047000EF90DF90CF90BF90AF90089510926302FD
:1004800084B5826084BD9B0186E0220F331F8A956C
:10049000E1F740E050E060E074E284EF90E00E9419
:1004A000FF02215027BD83E085BDEEE6F0E08081AC
:1004B000826080837894089580916302882319F084
:1004C0001092630208950000F7CF1F920F920FB6AB
:1004D0000F9211248F9381E0809363028F910F908C
:1004E0000FBE0F901F9018950C94DE030F931F936F
:1004F000CF93DF938C01EB016991662321F0C80152
:100500000E94D300F9CFDF91CF911F910F910895F1
:100510000C9476028F929F92AF92BF92CF92DF920D
:10052000EF92FF920F931F93CF93DF93CDB7DEB778
:100530002C970FB6F894DEBF0FBECDBF7C0177FFBE
:1005400009C070956095509541955F4F6F4F7F4FF3
:1005500001E001C000E01C861AE09AE0892E912C8F
:10056000A12CB12CCC24C394D12CCC0EDD1EC10EF9
:10057000D11CCB01BA01A50194010E942103942F43
:10058000852F605DF6016083A901692F782F8FEFB9
:10059000810F411551056105710511F0182FE2CF4A
:1005A000002349F0E1E0F0E0EC0FFD1FE80FF11D42
:1005B0009DE29083182F61E070E06C0F7D1F610F4A
:1005C000711DC7010E9476022C960FB6F894DEBF0B
:1005D0000FBECDBFDF91CF911F910F91FF90EF9094
:1005E000DF90CF90BF90AF909F908F90089584E65A
:1005F00092E00C94C20084E692E00C94D200A1E256
:100600001A2EAA1BBB1BFD010DC0AA1FBB1FEE1F8C
:10061000FF1FA217B307E407F50720F0A21BB30BD7
:10062000E40BF50B661F771F881F991F1A9469F753
:1006300060957095809590959B01AC01BD01CF01AF
:100640000895052E97FB1EF400940E94380357FD71
:1006500007D00E94FF0207FC03D04EF40C9438032D
:1006600050954095309521953F4F4F4F5F4F0895DE
:1006700090958095709561957F4F8F4F9F4F08950E
:10068000EE0FFF1F0590F491E02D09940F931F9337
:10069000CF93DF938230910510F482E090E0E091F7
:1006A0006702F091680220E030E0A0E0B0E030970F
:1006B00019F1408151810281138148175907C8F00F
:1006C0008417950769F4109731F012960C931297DE
:1006D00013961C9327C0009367021093680222C0F0
:1006E0002115310519F04217530718F49A01BD017D
:1006F000EF01DF01F801DBCF21153105F9F0281BEF
:10070000390B2430310580F48A819B816115710594
:1007100021F0FB019383828304C09093680280934D
:100720006702FE01329644C0FE01E20FF31F81937F
:10073000919322503109398328833AC02091650270
:1007400030916602232B41F4209102013091030184
:1007500030936602209365022091000130910101DF
:100760002115310541F42DB73EB740910401509158
:100770000501241B350BE0916502F0916602E2173A
:10078000F307A0F42E1B3F0B2817390778F0AC01B4
:100790004E5F5F4F2417350748F04E0F5F1F509391
:1007A0006602409365028193919302C0E0E0F0E01D
:1007B000CF01DF91CF911F910F910895CF93DF93D8
:1007C000009709F481C0FC01329713821282A09134
:1007D0006702B0916802109781F420813181820F05
:1007E000931F20916502309166022817390751F551
:1007F000F0936602E093650267C0ED0120E030E00F
:10080000CE17DF0740F44A815B819E0141155105F7
:10081000F1F0EA01F5CFD383C28340815181840F87
:10082000951FC817D90759F488819981840F951F9E
:100830000296918380838A819B8193838283211591
:10084000310529F4F0936802E09367023DC0E901A5
:10085000FB83EA8349915991C40FD51FEC17FD071B
:1008600061F480819181840F951F0296E90199833B
:100870008883828193819B838A83E0E0F0E01296F3
:100880008D919C911397009719F0FD01DC01F7CF32
:100890008D919C9111979D012E5F3F4F820F931F69
:1008A00020916502309166022817390769F4309764
:1008B00029F4109268021092670202C01382128219
:1008C000B0936602A0936502DF91CF91089510E086
:1008D000C6E3D0E004C0FE010E9440032196C83365
:0808E000D107C9F7F894FFCF1E
:1008E8000000690220000A0A696E697420646F6E4C
:1008F800650A0031003000706F73203D2000000051
:100908000000DC00E700E000DD00000000009501C9
:06091800A0019901960107
:00000001FF
