:100000000C9438000C9460000C9460000C94600018
:100010000C9460000C9460000C9460000C946000E0
:100020000C9460000C9460000C9460000C946000D0
:100030000C9460000C9460000C94B9020C94600065
:100040000C9460000C9460000C9460000C946000B0
:100050000C9460000C9460000C9460000C946000A0
:100060000C9460000C946000D4004B03D8004F0344
:1000700011241FBECFEFD8E0DEBFCDBF11E0A0E05E
:10008000B1E0E0E9F9E002C005900D92AA33B107B2
:10009000D9F722E0AAE3B1E001C01D92A139B2076D
:1000A000E1F710E0C6E3D0E004C02197FE010E9412
:1000B0009403C433D107C9F70E9462000C94BB04B7
:1000C0000C940000CF93DF931F92CDB7DEB766E0AC
:1000D00071E08CE892E00E94DC0262E370E0CE0105
:1000E00001960E949202CE0101960E94B0028AE31C
:1000F00091E00E9491018AE391E00E940F018AE35E
:1001000091E00E9455020AE311E0F8014481558113
:10011000052E000C660B770B8CE892E00E94DE0245
:1001200060E271E08CE892E00E94DC02085F1F4F01
:10013000F2E00A331F0749F761E171E08CE892E0D1
:100140000E94DC028AE391E00E9402028C0163E1DA
:1001500071E08CE892E00E94DC02A801110F660BAE
:10016000770B8CE892E00E94DE0260E271E08CE89E
:1001700092E00E94DC028AE391E00E9408026B0197
:100180007C016AE171E08CE892E00E94DC02B70138
:10019000A6018CE892E00E94DE0261E171E08CE849
:1001A00092E00E94DC029FCF8AE391E00C94DB0195
:1001B0008AE391E00C9400021092C50080E18093E4
:1001C000C400E2ECF0E0808186608083E1ECF0E046
:1001D000808188618083089508956093C60080912E
:1001E000C00085FD02C00000FACF0895089580E8A0
:1001F00090E008956E5F7F4F660F771F860F971F01
:1002000008950C94C80226E231E0FC01318320837A
:100210003898399A3A9A42984198089508958F9259
:100220009F92AF92BF92EF92FF920F931F93CF9343
:10023000DF93EC018C010C5F1F4F7C018CEFE81AFF
:100240008EEFF80AF80160E070E0CB0181909190A8
:10025000092C000CAA08BB08680D791D8A1D9B1D7E
:10026000EE15FF0599F720E830E040E050E00E94ED
:100270007503F80180819181821B930B8193919387
:100280008F01EE15FF05A9F7FE01CE0193952FEF23
:100290003FEF41E050E064817581161617061CF4AB
:1002A0005583448302C03583248332968E179F077B
:1002B00091F7DF91CF911F910F91FF90EF90BF9039
:1002C000AF909F908F900895ECE7F0E080E48083FA
:1002D00083E880937A0080816770682B608308953B
:1002E00080917A00806480937A0080917A0086FF02
:1002F00002C00000FACF80917800909179000895B3
:1003000000000000000000000000000000000000ED
:1003100000000000000000000000000000000000DD
:100320000895EF92FF920F931F93CF93DF93EC0109
:1003300060E00E946401CE010E9480014198429ACF
:10034000419A4298CE010E9480018E010C5F1F4F9E
:100350007E018CEFE81A8EEFF80ACE010E94700140
:100360009595879595958795F801819391938F0140
:100370004198CE010E948001419A0E151F0569F730
:100380004198CE010E948001419ACE01DF91CF9128
:100390001F910F91FF90EF900C948001089580E2DF
:1003A00090E008956E5F7F4F660F771F860F971F4F
:1003B00008950C94C802CF93DF93EC010E940301CF
:1003C000FE01E35FFE4F82E391E0918380833496E8
:1003D000CE018F5A9E4F21E030E021933193E817F0
:1003E000F907D9F7FE01E75FFE4F108211821282F2
:1003F0001382C95FDE4F19821882DF91CF91089571
:100400000C940E01895F9E4FFC01808191810895BB
:10041000875F9E4FFC016081718182819381089585
:10042000CF92DF92EF92FF920F931F93CF93DF93C0
:10043000DB01AC014F5E5E4FFB01EE0FFF1F20E0C2
:1004400030E060E070E0CB018F010D501140ED0114
:10045000C20FD31FC038D105C0F4EA01C00FD11FAD
:100460000990D881C02DFA01E080F180CE9D600115
:10047000CF9DD00CDE9DD00C11240D2C000CEE086D
:10048000FF086C0D7D1D8E1D9F1D2F5F3F4F4E5F22
:100490005F4F20323105D9F6DF91CF911F910F9137
:1004A000FF90EF90DF90CF900895AF92BF92CF92E0
:1004B000DF92EF92FF920F931F93CF93DF93EC01A4
:1004C00000E010E0C12C8FE1D82E8AE0E82E8AEF00
:1004D000F82E5E0189EFA81A8EEFB80AB801CE0196
:1004E0000E941002C616D706E806F9062CF4F5019C
:1004F000118300836B017C010F5F1F4F00381105D2
:1005000069F7C75FDE4FC882D982EA82FB82DF913A
:10051000CF911F910F91FF90EF90DF90CF90BF9000
:10052000AF90089510928B0284B5826084BD9B01C8
:1005300086E0220F331F8A95E1F740E050E060E04B
:1005400074E284EF90E00E945303215027BD83E0C2
:1005500085BDEEE6F0E08081826080837894089526
:1005600080918B02882319F010928B02089500006D
:10057000F7CF1F920F920FB60F9211248F9381E045
:1005800080938B028F910F900FBE0F901F90189544
:100590000C9432040F931F93CF93DF938C01EB01E4
:1005A0006991662321F0C8010E94ED00F9CFDF9127
:1005B000CF911F910F9108950C94CA028F929F9230
:1005C000AF92BF92CF92DF92EF92FF920F931F9361
:1005D000CF93DF93CDB7DEB72C970FB6F894DEBF7D
:1005E0000FBECDBF7C0177FF09C070956095509517
:1005F00041955F4F6F4F7F4F01E001C000E01C86C7
:100600001AE09AE0892E912CA12CB12CCC24C39411
:10061000D12CCC0EDD1EC10ED11CCB01BA01A5011F
:1006200094010E947503942F852F605DF60160830D
:10063000A901692F782F8FEF810F411551056105B1
:10064000710511F0182FE2CF002349F0E1E0F0E04E
:10065000EC0FFD1FE80FF11D9DE29083182F61E064
:1006600070E06C0F7D1F610F711DC7010E94CA02EF
:100670002C960FB6F894DEBF0FBECDBFDF91CF91A1
:100680001F910F91FF90EF90DF90CF90BF90AF90B0
:100690009F908F9008958CE892E00C94DC008CE899
:1006A00092E00C94EC00A1E21A2EAA1BBB1BFD01E8
:1006B0000DC0AA1FBB1FEE1FFF1FA217B307E40741
:1006C000F50720F0A21BB30BE40BF50B661F771F99
:1006D000881F991F1A9469F7609570958095909579
:1006E0009B01AC01BD01CF010895052E97FB1EF4BF
:1006F00000940E948C0357FD07D00E94530307FC0F
:1007000003D04EF40C948C03509540953095219570
:100710003F4F4F4F5F4F089590958095709561952D
:100720007F4F8F4F9F4F0895EE0FFF1F0590F4915D
:10073000E02D09940F931F93CF93DF93823091059F
:1007400010F482E090E0E0918F02F091900220E0BE
:1007500030E0A0E0B0E0309719F140815181028192
:10076000138148175907C8F08417950769F4109743
:1007700031F012960C93129713961C9327C0009396
:100780008F021093900222C02115310519F04217F3
:10079000530718F49A01BD01EF01DF01F801DBCF27
:1007A00021153105F9F0281B390B2430310580F46F
:1007B0008A819B816115710521F0FB0193838283FE
:1007C00004C09093900280938F02FE01329644C041
:1007D000FE01E20FF31F8193919322503109398377
:1007E00028833AC020918D0230918E02232B41F450
:1007F000209102013091030130938E0220938D02EB
:1008000020910001309101012115310541F42DB7EE
:100810003EB74091040150910501241B350BE09136
:100820008D02F0918E02E217F307A0F42E1B3F0B0E
:100830002817390778F0AC014E5F5F4F2417350752
:1008400048F04E0F5F1F50938E0240938D028193AC
:10085000919302C0E0E0F0E0CF01DF91CF911F91D2
:100860000F910895CF93DF93009709F481C0FC01A5
:10087000329713821282A0918F02B091900210974A
:1008800081F420813181820F931F20918D0230915C
:100890008E022817390751F5F0938E02E0938D02EE
:1008A00067C0ED0120E030E0CE17DF0740F44A8159
:1008B0005B819E0141155105F1F0EA01F5CFD3832B
:1008C000C28340815181840F951FC817D90759F4FD
:1008D00088819981840F951F0296918380838A81F4
:1008E0009B81938382832115310529F4F093900233
:1008F000E0938F023DC0E901FB83EA83499159915E
:10090000C40FD51FEC17FD0761F480819181840F1E
:10091000951F0296E90199838883828193819B8345
:100920008A83E0E0F0E012968D919C9113970097F6
:1009300019F0FD01DC01F7CF8D919C9111979D017C
:100940002E5F3F4F820F931F20918D0230918E02B8
:100950002817390769F4309729F410929002109201
:100960008F0202C013821282B0938E02A0938D0276
:10097000DF91CF91089510E0C6E3D0E004C0FE01FE
:100980000E9494032196C833D107C9F7F894FFCF8A
:100990000000910220000A0A696E697420646F6E7B
:1009A000650A00706F73203D2000636F6E66203D06
:1009B000200000000000F6000101FA00F70000002E
:0A09C0000000CE01D901D201CF01E1
:00000001FF
