:100000000C9438000C9460000C9460000C94600018
:100010000C9460000C9460000C9460000C946000E0
:100020000C9460000C9460000C9460000C946000D0
:100030000C9460000C9460000C949F010C94600080
:100040000C9460000C9460000C9460000C946000B0
:100050000C9460000C9460000C9460000C946000A0
:100060000C9460000C9460009D00C401A100C801C4
:1000700011241FBECFEFD8E0DEBFCDBF11E0A0E05E
:10008000B1E0E2E8F6E002C005900D92A432B107BB
:10009000D9F722E0A4E2B1E001C01D92A133B2077A
:1000A000E1F710E0C6E3D0E004C02197FE010E9412
:1000B0000D02C433D107C9F70E9462000C943403C7
:1000C0000C940000CF93DF931F92CDB7DEB766E0AC
:1000D00071E08CE292E00E94C20162E370E0CE0126
:1000E00001960E947801CE0101960E94960184E259
:1000F00091E00E943B0184E291E00E94D80004E27A
:1001000011E0F80184819581181619061CF463E149
:1001100071E002C065E171E08CE292E00E94C201F0
:100120000C5F1F4FF2E004321F0759F761E171E0E5
:100130008CE292E00E94C201D6CF84E291E00C945E
:10014000CC0084E291E00C94D7001092C50080E1CD
:100150008093C400E2ECF0E0808186608083E1EC73
:10016000F0E0808188618083089508956093C600DF
:100170008091C00085FD02C00000FACF0895089567
:1001800080E890E008956E5F7F4F660F771F860FBF
:10019000971F08950C94AE012BE131E0FC013183EF
:1001A00020833898399A3A9A429841980895089548
:1001B000CF92DF92EF92FF920F931F93CF93DF9333
:1001C000EC0124968C010C5F1E4FFE0160E070E094
:1001D000CB01C190D1900D2C000CEE08FF086C0DE6
:1001E0007D1D8E1D9F1D0E171F0799F720E830E01B
:1001F00040E050E00E94EE0188819981821B930BC0
:10020000899399930C171D07B9F7DF91CF911F912F
:100210000F91FF90EF90DF90CF900895ECE7F0E022
:1002200080E4808383E880937A0080816770682B04
:100230006083089580917A00806480937A00809131
:100240007A0086FF02C00000FACF8091780090917A
:100250007900089500000000000000000000000088
:10026000000000000000000000000000000000008E
:10027000000000000895EF92FF920F931F93CF9319
:10028000DF93EC0160E00E940E01CE010E942A0182
:100290004198429A419A4298CE010E942A018E01C9
:1002A0000C5F1F4F7E018CEFE81A8EEFF80ACE012B
:1002B0000E941A019595879595958795F8018193E8
:1002C00091938F014198CE010E942A01419A0E1507
:1002D0001F0569F74198CE010E942A01419ACE017B
:1002E000DF91CF911F910F91FF90EF900C942A0115
:1002F00010922B0284B5826084BD9B0186E0220FA0
:10030000331F8A95E1F740E050E060E074E284EF4B
:1003100090E00E94CC01215027BD83E085BDEEE630
:10032000F0E08081826080837894089580912B0230
:10033000882319F010922B0208950000F7CF1F9226
:100340000F920FB60F9211248F9381E080932B02AE
:100350008F910F900FBE0F901F9018950C94AB02C9
:100360000F931F93CF93DF938C01EB016991662369
:1003700021F0C8010E94B600F9CFDF91CF911F9103
:100380000F9108950C94B0018CE292E00C94A500BA
:100390008CE292E00C94B500A1E21A2EAA1BBB1BC2
:1003A000FD010DC0AA1FBB1FEE1FFF1FA217B30741
:1003B000E407F50720F0A21BB30BE40BF50B661F57
:1003C000771F881F991F1A9469F76095709580951B
:1003D00090959B01AC01BD01CF010895052E97FBBF
:1003E0001EF400940E94050257FD07D00E94CC0124
:1003F00007FC03D04EF40C940502509540953095BF
:1004000021953F4F4F4F5F4F089590958095709580
:1004100061957F4F8F4F9F4F0895EE0FFF1F0590FF
:10042000F491E02D09940F931F93CF93DF938230C3
:10043000910510F482E090E0E0912F02F0913002FB
:1004400020E030E0A0E0B0E0309719F14081518128
:100450000281138148175907C8F08417950769F47A
:10046000109731F012960C93129713961C9327C095
:1004700000932F021093300222C02115310519F08C
:100480004217530718F49A01BD01EF01DF01F8018B
:10049000DBCF21153105F9F0281B390B243031054C
:1004A00080F48A819B816115710521F0FB019383A2
:1004B000828304C09093300280932F02FE01329613
:1004C00044C0FE01E20FF31F819391932250310942
:1004D000398328833AC020912D0230912E02232B9C
:1004E00041F4209102013091030130932E022093B8
:1004F0002D0220910001309101012115310541F4B7
:100500002DB73EB74091040150910501241B350BD6
:10051000E0912D02F0912E02E217F307A0F42E1BBA
:100520003F0B2817390778F0AC014E5F5F4F241757
:10053000350748F04E0F5F1F50932E0240932D0257
:100540008193919302C0E0E0F0E0CF01DF91CF9181
:100550001F910F910895CF93DF93009709F481C005
:10056000FC01329713821282A0912F02B0913002C7
:10057000109781F420813181820F931F20912D02E9
:1005800030912E022817390751F5F0932E02E0938F
:100590002D0267C0ED0120E030E0CE17DF0740F408
:1005A0004A815B819E0141155105F1F0EA01F5CFC9
:1005B000D383C28340815181840F951FC817D90707
:1005C00059F488819981840F951F029691838083C5
:1005D0008A819B81938382832115310529F4F093CD
:1005E0003002E0932F023DC0E901FB83EA83499189
:1005F0005991C40FD51FEC17FD0761F480819181DB
:10060000840F951F0296E9019983888382819381E3
:100610009B838A83E0E0F0E012968D919C91139782
:10062000009719F0FD01DC01F7CF8D919C91119796
:100630009D012E5F3F4F820F931F20912D0230911D
:100640002E022817390769F4309729F410923002E6
:1006500010922F0202C013821282B0932E02A09336
:100660002D02DF91CF91089510E0C6E3D0E004C0E1
:10067000FE010E940D022196C833D107C9F7F894F4
:02068000FFCFAA
:100682000000310220000A0A696E697420646F6EEC
:10069200650A003100300000000000BF00CA00C33C
:0406A20000C0000094
:00000001FF
