:100000000C9438000C9460000C9460000C94600018
:100010000C9460000C9460000C9460000C946000E0
:100020000C9460000C9460000C9460000C946000D0
:100030000C9460000C9460000C94B6020C94600068
:100040000C9460000C9460000C9460000C946000B0
:100050000C9460000C9460000C9460000C946000A0
:100060000C9460000C946000D1004803D5004C0350
:1000700011241FBECFEFD8E0DEBFCDBF11E0A0E05E
:10008000B1E0EAE8F9E002C005900D92AE33B107A5
:10009000D9F722E0AEE3B1E001C01D92A539B20765
:1000A000E1F710E0C6E3D0E004C02197FE010E9412
:1000B0009103C433D107C9F70E9462000C94B804BD
:1000C0000C940000CF93DF931F92CDB7DEB766E0AC
:1000D00071E080E992E00E94D90262E370E0CE0113
:1000E00001960E948F02CE0101960E94AD028EE31E
:1000F00091E00E948E018EE391E00E940C018EE35C
:1001000091E00E9452020EE311E0F8018481958192
:1001100097FF03C063E171E002C065E171E080E92F
:1001200092E00E94D9020C5F1F4FF2E00E331F07CE
:1001300061F761E171E080E992E00E94D9028EE30B
:1001400091E00E94FF018C0167E171E080E992E09B
:100150000E94D902A801110F660B770B80E992E08B
:100160000E94DB0264E271E080E992E00E94D90221
:100170008EE391E00E9405026B017C016EE171E06B
:1001800080E992E00E94D902B701A60180E992E0DD
:100190000E94DB0261E171E080E992E00E94D902F5
:1001A000A2CF8EE391E00C94D8018EE391E00C9401
:1001B000FD011092C50080E18093C400E2ECF0E004
:1001C000808186608083E1ECF0E0808188618083BB
:1001D000089508956093C6008091C00085FD02C017
:1001E0000000FACF0895089580E890E008956E5FCA
:1001F0007F4F660F771F860F971F08950C94C502D7
:100200002AE231E0FC01318320833898399A3A9A06
:1002100042984198089508958F929F92AF92BF920D
:10022000EF92FF920F931F93CF93DF93EC018C011A
:100230000C5F1F4F7C018CEFE81A8EEFF80AF80173
:1002400060E070E0CB0181909190092C000CAA082D
:10025000BB08680D791D8A1D9B1DEE15FF0599F7DA
:1002600020E830E040E050E00E947203F801808115
:100270009181821B930B819391938F01EE15FF0562
:10028000A9F7FE01CE0193952FEF3FEF41E050E03B
:1002900064817581161617061CF45583448302C0C9
:1002A0003583248332968E179F0791F7DF91CF9184
:1002B0001F910F91FF90EF90BF90AF909F908F9004
:1002C0000895ECE7F0E080E4808383E880937A008F
:1002D00080816770682B6083089580917A008064C4
:1002E00080937A0080917A0086FF02C00000FACFE6
:1002F000809178009091790008950000000000003E
:1003000000000000000000000000000000000000ED
:10031000000000000000000000000895EF92FF922E
:100320000F931F93CF93DF93EC0160E00E94610174
:10033000CE010E947D014198429A419A4298CE0195
:100340000E947D018E010C5F1F4F7E018CEFE81A29
:100350008EEFF80ACE010E946D01959587959595CF
:100360008795F801819391938F014198CE010E9466
:100370007D01419A0E151F0569F74198CE010E9433
:100380007D01419ACE01DF91CF911F910F91FF9096
:10039000EF900C947D01089580E290E008956E5FE7
:1003A0007F4F660F771F860F971F08950C94C50225
:1003B000CF93DF93EC010E940001FE01E35FFE4F4B
:1003C00086E391E0918380833496CE018F5A9E4FCD
:1003D00021E030E021933193E817F907D9F7FE01C6
:1003E000E75FFE4F1082118212821382C95FDE4FD7
:1003F00019821882DF91CF9108950C940B01895FC7
:100400009E4FFC01808191810895875F9E4FFC0182
:1004100060817181828193810895CF92DF92EF9202
:10042000FF920F931F93CF93DF93DB01AC014F5EDD
:100430005E4FFB01EE0FFF1F20E030E060E070E058
:10044000CB018F010D501140ED01C20FD31FC038F9
:10045000D105C0F4EA01C00FD11F0990D881C02D89
:10046000FA01E080F180CE9D6001CF9DD00CDE9D31
:10047000D00C11240D2C000CEE08FF086C0D7D1D16
:100480008E1D9F1D2F5F3F4F4E5F5F4F2032310506
:10049000D9F6DF91CF911F910F91FF90EF90DF90F0
:1004A000CF900895AF92BF92CF92DF92EF92FF92DA
:1004B0000F931F93CF93DF93EC0100E010E0C12C6A
:1004C0008FE1D82E8AE0E82E8AEFF82E5E0189EFC0
:1004D000A81A8EEFB80AB801CE010E940D02C61606
:1004E000D706E806F9062CF4F501118300836B01A9
:1004F0007C010F5F1F4F0038110569F7C75FDE4FA2
:10050000C882D982EA82FB82DF91CF911F910F913D
:10051000FF90EF90DF90CF90BF90AF900895109232
:100520008F0284B5826084BD9B0186E0220F331F59
:100530008A95E1F740E050E060E074E284EF90E0FB
:100540000E945003215027BD83E085BDEEE6F0E018
:100550008081826080837894089580918F028823BF
:1005600019F010928F0208950000F7CF1F920F929A
:100570000FB60F9211248F9381E080938F028F9199
:100580000F900FBE0F901F9018950C942F040F938F
:100590001F93CF93DF938C01EB016991662321F0C8
:1005A000C8010E94EA00F9CFDF91CF911F910F910E
:1005B00008950C94C7028F929F92AF92BF92CF92F0
:1005C000DF92EF92FF920F931F93CF93DF93CDB7FC
:1005D000DEB72C970FB6F894DEBF0FBECDBF7C01FF
:1005E00077FF09C070956095509541955F4F6F4FAB
:1005F0007F4F01E001C000E01C861AE09AE0892EDE
:10060000912CA12CB12CCC24C394D12CCC0EDD1E6A
:10061000C10ED11CCB01BA01A50194010E94720345
:10062000942F852F605DF6016083A901692F782FD3
:100630008FEF810F411551056105710511F0182FDC
:10064000E2CF002349F0E1E0F0E0EC0FFD1FE80FFE
:10065000F11D9DE29083182F61E070E06C0F7D1F0B
:10066000610F711DC7010E94C7022C960FB6F89446
:10067000DEBF0FBECDBFDF91CF911F910F91FF90D5
:10068000EF90DF90CF90BF90AF909F908F900895A4
:1006900080E992E00C94D90080E992E00C94E900A2
:1006A000A1E21A2EAA1BBB1BFD010DC0AA1FBB1F76
:1006B000EE1FFF1FA217B307E407F50720F0A21BE8
:1006C000B30BE40BF50B661F771F881F991F1A9455
:1006D00069F760957095809590959B01AC01BD017F
:1006E000CF010895052E97FB1EF400940E94890304
:1006F00057FD07D00E94500307FC03D04EF40C9422
:10070000890350954095309521953F4F4F4F5F4F4E
:10071000089590958095709561957F4F8F4F9F4F6D
:100720000895EE0FFF1F0590F491E02D09940F93AB
:100730001F93CF93DF938230910510F482E090E015
:10074000E0919302F091940220E030E0A0E0B0E06C
:10075000309719F14081518102811381481759075F
:10076000C8F08417950769F4109731F012960C932E
:10077000129713961C9327C0009393021093940230
:1007800022C02115310519F04217530718F49A01B8
:10079000BD01EF01DF01F801DBCF21153105F9F0D3
:1007A000281B390B2430310580F48A819B81611527
:1007B000710521F0FB019383828304C0909394021E
:1007C00080939302FE01329644C0FE01E20FF31FB4
:1007D0008193919322503109398328833AC0209123
:1007E000910230919202232B41F420910201309129
:1007F00003013093920220939102209100013091E5
:1008000001012115310541F42DB73EB74091040196
:1008100050910501241B350BE0919102F091920259
:10082000E217F307A0F42E1B3F0B2817390778F0C7
:10083000AC014E5F5F4F2417350748F04E0F5F1F26
:1008400050939202409391028193919302C0E0E011
:10085000F0E0CF01DF91CF911F910F910895CF93D9
:10086000DF93009709F481C0FC0132971382128252
:10087000A0919302B0919402109781F4208131816C
:10088000820F931F2091910230919202281739070D
:1008900051F5F0939202E093910267C0ED0120E0E0
:1008A00030E0CE17DF0740F44A815B819E0141159D
:1008B0005105F1F0EA01F5CFD383C2834081518124
:1008C000840F951FC817D90759F488819981840F1F
:1008D000951F0296918380838A819B819383828373
:1008E0002115310529F4F0939402E09393023DC061
:1008F000E901FB83EA8349915991C40FD51FEC1795
:10090000FD0761F480819181840F951F0296E901B2
:1009100099838883828193819B838A83E0E0F0E0DE
:1009200012968D919C911397009719F0FD01DC01AF
:10093000F7CF8D919C9111979D012E5F3F4F820FB4
:10094000931F20919102309192022817390769F480
:10095000309729F4109294021092930202C01382ED
:100960001282B0939202A0939102DF91CF910895E9
:1009700010E0C6E3D0E004C0FE010E94910321967E
:0A098000C833D107C9F7F894FFCF80
:10098A000000950220000A0A696E697420646F6E7D
:10099A00650A002A002E00706F73203D2000636FE5
:1009AA006E66203D200000000000F300FE00F70004
:0E09BA00F40000000000CB01D601CF01CC01FB
:00000001FF
