:100000000C9438000C9460000C9460000C94600018
:100010000C9460000C9460000C9460000C946000E0
:100020000C9460000C9460000C9460000C946000D0
:100030000C9460000C9460000C944A030C946000D3
:100040000C9460000C9460000C9460000C946000B0
:100050000C9460000C9460000C9460000C946000A0
:100060000C9460000C946000D0001B03D4001F03AC
:1000700011241FBECFEFD8E0DEBFCDBF11E0A0E05E
:10008000B1E0E8EDF9E002C005900D92AE33B107A2
:10009000D9F721E0AEE3B1E001C01D92A63FB2075F
:1000A000E1F710E0C6E3D0E004C02197FE010E9412
:1000B000B803C433D107C9F70E9462000C94DF046F
:1000C0000C940000CF93DF931F92CDB7DEB766E0AC
:1000D00071E080EF91E00E94AC0262E370E0CE013B
:1000E00001960E942303CE0101960E9441038EE3F4
:1000F00091E00E9468018EE391E00E94EF008EE3A0
:1001000091E00E9445020EE311E0F801838187FF30
:1001100003C063E171E002C065E171E080EF91E04E
:100120000E94AC020E5F1F4FF1E00E3B1F0769F704
:1001300061E171E080EF91E00E94AC028EE391E01A
:100140000E94FE018C0167E171E080EF91E00E9466
:10015000AC02A801110F660B770B80EF91E00E94B3
:10016000AE0264E271E080EF91E00E94AC028EE3A7
:1001700091E00E9404026B017C016EE171E080EF6E
:1001800091E00E94AC02B701A60180EF91E00E94CD
:10019000AE0261E171E080EF91E00E94AC02A3CF7A
:1001A0008EE391E00C94CE018EE391E00C94FC017F
:1001B000089580E890E008956D5F7F4F860F971F48
:1001C00008950C9498022AE231E0FC0131832083E7
:1001D0003898399A3A9A42984198089508958F929A
:1001E0009F92AF92BF92EF92FF920F931F93CF9384
:1001F000DF93EC018C010D5F1F4F7C0183E8E80E5B
:10020000F11CF80160E070E0CB018190082C000C3B
:100210009908AA08BB08680D791D8A1D9B1DEE155B
:10022000FF0599F720E830E040E050E00E947B03B2
:10023000F8018081821B81938F01EE15FF05C1F7C4
:10024000FE01CE0180589F4F2FEF31E043811416FD
:1002500014F4338301C0238331968E179F07B1F7BF
:10026000DF91CF911F910F91FF90EF90BF90AF90D2
:100270009F908F900895ECE7F0E080E4808383E81E
:1002800080937A0080816770682B608308958091E5
:100290007A00806480937A0080917A0086FF02C0A1
:1002A0000000FACF809178009091790008950000C5
:1002B000000000000000000000000000000000003E
:1002C0000000000000000000000000000000089591
:1002D000EF92FF920F931F93CF93DF93EC0160E0B7
:1002E0000E943B01CE010E945701429ACE010E941A
:1002F0005701419ACE010E9457014298CE010E94B7
:1003000057014198CE010E9457018E010D5F1F4F8A
:100310007E0183E8E80EF11C419ACE010E9457014C
:10032000CE010E94470123E0959587952A95E1F734
:10033000F80181938F014198CE010E9457010E155B
:100340001F0551F7DF91CF911F910F91FF90EF9013
:1003500008951092C50080E18093C400E2ECF0E0C3
:10036000808186608083E1ECF0E080818861808319
:10037000089508956093C6008091C00085FD02C075
:100380000000FACF0895089583E290E008956D5F2C
:100390007F4F860F971F08950C949802CF93DF9399
:1003A000EC010E94E300FE01E457FF4F86E391E079
:1003B000918380833396CE018E549F4F21E0219309
:1003C000E817F907E1F7FE01E656FF4FCE01895520
:1003D0009F4F2FEF21938E179F07E1F7FE01E857FC
:1003E000FF4F1082118212821382CA57DF4F198287
:1003F0001882DF91CF9108950C94EE008A579F4F99
:10040000FC0180819181089588579F4FFC01608194
:100410007181828193810895CF92DF92EF92FF9252
:100420000F931F93CF93DF93AC01EC01C157DF4FC4
:10043000FC01E60FF71F8C010E541F4FC12CD12C6D
:100440007601CF01841B950B8038910570F42881CB
:10045000A381022E000C330B0A2E000CBB0B0E9452
:100460009A03C60ED71EE81EF91E21963196C017B4
:10047000D10739F7C701B601DF91CF911F910F91D5
:10048000FF90EF90DF90CF900895AF92BF92CF9200
:10049000DF92EF92FF920F931F93CF93DF93EC01C4
:1004A00000E010E0C12C8FE1D82E8AE0E82E8AEF20
:1004B000F82E5E0186E8A80EB11CB801CE010E949C
:1004C0000C02C616D706E806F9062CF4F5011183CE
:1004D00000836B017C010F5F1F4F0038110569F726
:1004E000FE01E857FF4FC082D182E282F382329749
:1004F000808191818536910514F01182108280816E
:1005000091818135910524F080E590E0918380838D
:1005100080819181889791838083DF91CF911F9112
:100520000F91FF90EF90DF90CF90BF90AF90089524
:100530000C9456040F931F93CF93DF938C01EB0120
:100540006991662321F0C8010E94BA01F9CFDF91B9
:10055000CF911F910F9108950C949A028F929F92C0
:10056000AF92BF92CF92DF92EF92FF920F931F93C1
:10057000CF93DF93CDB7DEB72C970FB6F894DEBFDD
:100580000FBECDBF7C0177FF09C070956095509577
:1005900041955F4F6F4F7F4F01E001C000E01C8627
:1005A0001AE09AE0892E912CA12CB12CCC24C39472
:1005B000D12CCC0EDD1EC10ED11CCB01BA01A50180
:1005C00094010E947B03942F852F605DF601608368
:1005D000A901692F782F8FEF810F41155105610512
:1005E000710511F0182FE2CF002349F0E1E0F0E0AF
:1005F000EC0FFD1FE80FF11D9DE29083182F61E0C5
:1006000070E06C0F7D1F610F711DC7010E949A027F
:100610002C960FB6F894DEBF0FBECDBFDF91CF9101
:100620001F910F91FF90EF90DF90CF90BF90AF9010
:100630009F908F90089580EF91E00C94A90180EF36
:1006400091E00C94B9011092F10184B5826084BDEF
:100650009B0186E0220F331F8A95E1F740E050E0CE
:1006600060E074E284EF90E00E945903215027BDBE
:1006700083E085BDEEE6F0E080818260808378943F
:1006800008958091F101882319F01092F1010895E5
:100690000000F7CF1F920F920FB60F9211248F9385
:1006A00081E08093F1018F910F900FBE0F901F900A
:1006B0001895A1E21A2EAA1BBB1BFD010DC0AA1F93
:1006C000BB1FEE1FFF1FA217B307E407F50720F0BB
:1006D000A21BB30BE40BF50B661F771F881F991F36
:1006E0001A9469F760957095809590959B01AC017F
:1006F000BD01CF010895052E97FB1EF400940E94C2
:10070000920357FD07D00E94590307FC03D04EF413
:100710000C94920350954095309521953F4F4F4F43
:100720005F4F089590958095709561957F4F8F4F9D
:100730009F4F08950E94A203332312F48A1B9B0B40
:100740000C94B303A29FB001B39FC001A39F700D8F
:10075000811D1124911DB29F700D811D1124911DC9
:1007600008950E94A203B7FF0895821B930B08957A
:10077000EE0FFF1F0590F491E02D09940F931F9346
:10078000CF93DF938230910510F482E090E0E09106
:10079000F401F091F50120E030E0A0E0B0E0309706
:1007A00019F1408151810281138148175907C8F01E
:1007B0008417950769F4109731F012960C931297ED
:1007C00013961C9327C00093F4011093F50122C0E7
:1007D0002115310519F04217530718F49A01BD018C
:1007E000EF01DF01F801DBCF21153105F9F0281BFE
:1007F000390B2430310580F48A819B8161157105A4
:1008000021F0FB019383828304C09093F5018093D0
:10081000F401FE01329644C0FE01E20FF31F819302
:10082000919322503109398328833AC02091F201F3
:100830003091F301232B41F4209102013091030107
:100840003093F3012093F2012091000130910101D6
:100850002115310541F42DB73EB740910401509167
:100860000501241B350BE091F201F091F301E21731
:10087000F307A0F42E1B3F0B2817390778F0AC01C3
:100880004E5F5F4F2417350748F04E0F5F1F5093A0
:10089000F3014093F2018193919302C0E0E0F0E014
:1008A000CF01DF91CF911F910F910895CF93DF93E7
:1008B000009709F481C0FC01329713821282A09143
:1008C000F401B091F501109781F420813181820FFC
:1008D000931F2091F2013091F3012817390751F548
:1008E000F093F301E093F20167C0ED0120E030E006
:1008F000CE17DF0740F44A815B819E014115510507
:10090000F1F0EA01F5CFD383C28340815181840F96
:10091000951FC817D90759F488819981840F951FAD
:100920000296918380838A819B81938382832115A0
:10093000310529F4F093F501E093F4013DC0E9019C
:10094000FB83EA8349915991C40FD51FEC17FD072A
:1009500061F480819181840F951F0296E90199834A
:100960008883828193819B838A83E0E0F0E0129602
:100970008D919C911397009719F0FD01DC01F7CF41
:100980008D919C9111979D012E5F3F4F820F931F78
:100990002091F2013091F3012817390769F430975B
:1009A00029F41092F5011092F40102C01382128210
:1009B000B093F301A093F201DF91CF91089510E07D
:1009C000C6E3D0E004C0FE010E94B8032196C833FC
:0809D000D107C9F7F894FFCF2D
:1009D8000000F60120000A0A696E697420646F6ECF
:1009E800650A002A002E00706F73203D2000636F97
:1009F8006E66203D200000000000D800E100DC0009
:0E0A0800D90000000000C301CC01C701C401E9
:00000001FF
